:100000000C94A1000C9419020C94BE000C94590796
:100010000C94BE000C94BE000C94BE000C94BE0068
:100020000C94BE000C94BE000C94BE000C94BE0058
:100030000C94BE000C94BE000C94BE000C94BE0048
:100040000C94BE000C94BE000C94BE000C94BE0038
:100050000C94BE000C94BE000C94BE000C94BE0028
:100060000C94BE000C94BE00040309043C0374000D
:1000700065007300740062006C006F0067002E0062
:10008000610072006C00650073002D0065006C005B
:1000900065006300740072006900710075006500FE
:1000A0002E006400650044035200550057004900CB
:1000B00044004F0020004D00650072006C00690094
:1000C0006E002000490052002D00550053004200F0
:1000D0002D004800490044002D00520065006300D7
:1000E00065006900760065007200120110010000D1
:1000F0000008424231E10001010200010902220030
:100100000101008032090400000103000000092100
:10011000010100012223000705810308000A0501EF
:100120000906A101050719E029E715002501750158
:1001300095088102950175082565190029658100DA
:10014000C00011241FBECFEFD8E0DEBFCDBF14E04A
:10015000A0E0B1E0E8E5F0E102C005900D92A63123
:10016000B107D9F714E0A6E1B4E001C01D92A539AA
:10017000B107E1F70E94AA070C942A080C9400002A
:100180001F93162F20916A0424FF07C020916B044F
:1001900038E8232720936B0403C02AE520936A04E0
:1001A000212FDC01ECE6F4E08D91819321501216B1
:1001B000DCF38CE694E0612F0E9415021C5F109323
:1001C0006A041F9108951F93CF93DF9380917B045E
:1001D000835087FDA9C090917804209177042D3237
:1001E00009F0A0C0883009F09DC0CCE0D0E0C91B68
:1001F000D109C158DB4F83EC80935F048AE580937B
:100200000001109216048881807621F0CE010E94B0
:100210007D077FC09A81109268048981882331F418
:100220001092690428E634E082E06FC0853019F44A
:1002300090937C0467C0863009F04EC08B8181307A
:1002400041F48AEE90E090937A048093790482E1FD
:100250003FC0823041F48CEF90E090937A04809319
:10026000790482E235C08330F1F4992341F488E6C1
:1002700090E090937A048093790484E029C09130CF
:1002800041F48CE690E090937A04809379048AE3B9
:100290001FC09230E1F486EA90E090937A04809354
:1002A000790484E415C0813241F48EE091E09093AA
:1002B0007A048093790489E00BC0823241F48EE1A4
:1002C00091E090937A048093790483E201C080E006
:1002D00090E4909316041DC0883069F0893019F4B9
:1002E00090937E040FC08A3049F08B3059F48BE430
:1002F00080936B0407C02EE734E002C028E634E0A8
:1003000081E003C028E634E080E030937A04209353
:1003100079049F81992321F49E81981708F4892FED
:100320008093010110927B048091000184FF4DC0F5
:10033000809101018F3F09F448C0182F893008F0DF
:1003400018E0811B8093010180915F0498E8892760
:1003500080935F04112361F18091790490917A0474
:1003600030911604212F215036FF0EC030E0A90134
:100370004F595B4FFC01A0E6B4E064916D93319658
:10038000A417B507D1F70CC0DC0130E0A9014F5923
:100390005B4FE0E6F4E06D916193E417F507D9F760
:1003A0002F5F3F4F280F391F30937A042093790431
:1003B00080E694E0612F0E9415021C5F1C3019F04A
:1003C0008FEF809301011093000184E199B1957042
:1003D00031F48150D9F710927C0410927604DF91A9
:1003E000CF911F910895E9E6F0E0808183608083DA
:1003F000E89A8BE480936B048AE580936A040895FD
:10040000A82FB92F80E090E041E050EA609530E0FD
:1004100009C02D9182279795879510F084279527FD
:10042000305EC8F36F5FA8F30895EADF8D939D9364
:100430000895CF93CFB7CF93DF93C395489BE9F748
:10044000489B0BC0489B09C0489B07C0489B05C000
:10045000489B03C0489B01C08BC06F93C091780438
:10046000DD27C158DB4F2F9365E5489B03C02F91D3
:100470006F91E6CF0F931F934F9320E040E15F937E
:1004800009B1057000FB27F93F9350E03BE039C00C
:10049000157040642F77012F5F5F1EC0406819B14F
:1004A00015702F7752501FC0406409B12F77057027
:1004B000D1F15F5F00C023C0406219B12F77157082
:1004C00091F15F5F00C025C005701027515012F4F4
:1004D0005D5F0000115027952C3F19B1C8F61570CB
:1004E0000127015027952C3FC8F64227499309B1AF
:1004F000057010274F73115027952C3FA8F646958D
:10050000469519B1157079F00127015027952C3FB8
:1005100098F66B5A60F3315009B1B0F600C011E0A3
:100520001CBB002719C03B503195C31BD04011E0C4
:100530001CBB0881033C09F10B34F9F020917604CF
:100540001981110F1213EDCF4A81441F093651F161
:100550000D3211F0013E29F700937D043F915F9128
:100560004F911F910F912F916F91CCB3C0FD65CF2B
:10057000DF91CF91CFBFCF91189520917D04222399
:1005800069F310917B04112391F5343092F130938B
:100590007B0420937704109178043BE0311B309367
:1005A000780427C000917B0401300CF50AE54F70F8
:1005B00049F43091000134FD1DC000930001CFE5E6
:1005C000D4E01CC030916A0434FD14C000936A0466
:1005D000CBE6D4E013C0052710E000C000000BB943
:1005E0001AC0052710E0221F1DC010E021C04AE5F7
:1005F00002C032ED432FC4E1D0E032E01AB1156001
:10060000589A0BB11AB955E020E865E320FF052799
:100610000BB9279517951C3FF0F66695B8F7B1F71B
:1006200020FF05270BB9279517951C3FD0F6279576
:10063000179517FF052700001C3F0BB9B0F629914D
:100640003A9519F70A7F10917C04110FC651D040DA
:100650000BB911F01093760411E01CBB01601AB1C4
:100660001A7F402F4A7F54E05A95F1F70BB91AB917
:100670004BB974CF90911704983008F041C0A09105
:100680005604B0E0FD01EE0FFF1FEA0FFB1FEE0F57
:10069000FF1FE75EFB4F80838091560490E0FC01D2
:1006A000EE0FFF1FE80FF91FEE0FFF1FE75EFB4F76
:1006B000548343838091560490E0FC01EE0FFF1FAA
:1006C000E80FF91FEE0FFF1FE75EFB4F7283618398
:1006D0008091560490E0FC01EE0FFF1FE80FF91F18
:1006E000EE0FFF1FE75EFB4F2583809156048F5F5F
:1006F000877080935604809117048F5F809317044E
:100700000895EF92FF920F931F93209184003091F0
:1007100085003F774091540450915504C901841BD2
:10072000950B4217530710F08050904890934A045D
:1007300080934904309355042093540420914B0432
:10074000233009F4CAC0243028F4213099F0223033
:1007500098F50DC0253009F41FC1253008F410C1EB
:10076000263009F417C1273009F0ACC1A8C1199986
:10077000AFC1AFC09C012A5030402730310510F482
:1007800082E007C0815292408B30910508F09EC1F3
:1007900084E080934B0410924C0410924D0410920C
:1007A0004E0410924F041092500410925104109273
:1007B0005204109253048CC19C012A5030402730BF
:1007C000310570F480914C0490914D04A0914E0439
:1007D000B0914F04880F991FAA1FBB1F816012C0E0
:1007E0009C01275130402830310540F580914C0460
:1007F00090914D04A0914E04B0914F04880F991F21
:10080000AA1FBB1F80934C0490934D04A0934E04E9
:10081000B0934F048091500490915104A0915204E0
:10082000B09153040196A11DB11D80935004909383
:100830005104A0935204B09353044DC08F319105DD
:10084000E0F12091500430915104409152045091B4
:100850005304203131054105510590F12031310516
:100860004105510549F460914C0470914D0481E0BB
:1008700040E050E021E01EC02A313105410551051C
:1008800040F180914C0490914D04A0914E04B091A0
:100890004F04205130407C018D0104C0169507950E
:1008A000F794E7942A95D2F7FC01FF7081E0B70135
:1008B000AF0120E00E943A030CC08A30910548F055
:1008C0009C01215130402630310518F08F319105BF
:1008D00010F081E0F1C083E0EFC09C012A5030406D
:1008E0002730310568F480914C0490914D04A0911B
:1008F0004E04B0914F04880F991FAA1FBB1F13C04D
:100900009C01275130402830310548F580914C0436
:1009100090914D04A0914E04B0914F04880F991FFF
:10092000AA1FBB1F816080934C0490934D04A09339
:100930004E04B0934F048091500490915104A091C3
:100940005204B09153040196A11DB11D809350042F
:1009500090935104A0935204B09353040FC08A3073
:10096000910508F4B3C09C01215130402630310577
:1009700008F4ACC08F31910508F0A8C082E09CC09B
:10098000835191408B30910508F0A0C086E08093A0
:100990004B0409CF85E090C09C012E5130402B3094
:1009A000310568F480914C0490914D04A0914E045F
:1009B000B0914F04880F991FAA1FBB1F12C0845605
:1009C00090408B309105B8F580914C0490914D0486
:1009D000A0914E04B0914F04880F991FAA1FBB1F0E
:1009E000816080934C0490934D04A0934E04B09387
:1009F0004F048091500490915104A0915204B09101
:100A000053040196A11DB11D80935004909351048D
:100A1000A0935204B0935304209150043091510498
:100A20004091520450915304203231054105510543
:100A300008F441C023C082E091E00E94CC0580917F
:100A4000490490914A040E946D0689E191E00E9458
:100A5000CC05809150040E94AB0680E291E00E9498
:100A6000CC0560914C0470914D0480914E0490919E
:100A70004F040E941F060E94CB0628C080914C04A0
:100A800090914D04A0914E04B0914F0420513040FC
:100A90007C018D0104C016950795F794E7942A957B
:100AA000D2F7FC01FF7082E0B701AF0120E00E94A5
:100AB0003A0387E001C086E080934B0409C019998E
:100AC00007C004C088E291E00E94CC0510924B045C
:100AD0001F910F91FF90EF900895DC018091170412
:100AE000882309F441C08091180490E0FC01EE0FC6
:100AF000FF1FE80FF91FEE0FFF1FE75EFB4F81811D
:100B0000928112969C938E9311978091180490E095
:100B1000FC01EE0FFF1FE80FF91FEE0FFF1FE75E4E
:100B2000FB4F8381948114969C938E9313978091AD
:100B3000180490E0FC01EE0FFF1FE80FF91FEE0F05
:100B4000FF1FE75EFB4F858115968C93159780916B
:100B500018048F5F87708093180480911704815068
:100B60008093170481E0089580E0089589E190E082
:100B70009093C5008093C40086E08093C20088E112
:100B80008093C1001092C00008959091C00095FF1D
:100B9000FCCF8093C6000895EF92FF92CF93DF932E
:100BA000E82EE7017E01F92EE70102C00E94C5058B
:100BB00089918823D9F7DF91CF91FF90EF90089525
:100BC0008A3010F4805D01C0895C0E94C5050895DB
:100BD0001F93182F88E391E00E94CC05812F829506
:100BE0008F700E94E005812F8F700E94E0051F9199
:100BF0000895EF92FF92CF93DF93EC0188E391E0A9
:100C00000E94CC057E018F2D82958F700E94E00599
:100C10008F2D8F700E94E005CE0124E09695879578
:100C20002A95E1F78F700E94E0059E012F70822FB8
:100C30000E94E005DF91CF91FF90EF900895EF9231
:100C4000FF920F931F937B018C0188E391E00E9438
:100C5000CC05D801C7016CE1B695A7959795879506
:100C60006A95D1F70E94E005812F8F700E94E00500
:100C7000D801C70154E1B695A795979587955A95E0
:100C8000D1F78F700E94E005802F8F700E94E005E1
:100C9000D801C7014CE0B695A795979587954A95D9
:100CA000D1F78F700E94E0058F2D8F700E94E005B4
:100CB000D801C70134E0B695A795979587953A95E1
:100CC000D1F78F700E94E0058E2D8F700E94E00595
:100CD0001F910F91FF90EF900895FF920F931F9334
:100CE000CF93DF93EC0160E177E20E941608862F34
:100CF000805D0E94C505CE0168EE73E00E94160873
:100D00000AE010E0CB01B8010E941608805D0E9445
:100D1000C505CE0164E670E00E941608CB01B8015B
:100D20000E941608805D0E94C505CE01B8010E9490
:100D30001608F82ECB01B8010E941608805D0E94AB
:100D4000C5058F2D805D0E94C505DF91CF911F9154
:100D50000F91FF9008950F931F93082F64E60E9450
:100D60000A081AE0612F0E940A08892F805D0E94FC
:100D7000C505802F612F0E940A08092F0E940A08CA
:100D8000892F805D0E94C505802F805D0E94C5056A
:100D90001F910F9108958DE00E94C5058AE00E9481
:100DA000C5050895DF93CF9300D000D000D0CDB714
:100DB000DEB7CE0101960E946D05882309F468C054
:100DC0008A819B812AE28B3A920709F061C08C816B
:100DD0009D81009709F454C02E81222309F050C050
:100DE000A0E0B0E0EBE3F1E060E070E02081318171
:100DF00042815381281739074A075B0769F4FB01D1
:100E0000EE0FFF1FEE0FFF1FE60FF71FE55CFE4F13
:100E100084818093570425C06F5F7F4F359665307E
:100E2000710521F7E8EAF2E060E070E020813181AD
:100E300042815381281739074A075B0761F4FB0198
:100E4000EE0FFF1FEE0FFF1FE60FF71FE855FD4FD8
:100E5000848190E008C06F5F7F4F35966A347105DA
:100E600029F780E090E0AA2797FDA095BA2F8093FC
:100E7000580490935904A0935A04B0935B0408C09B
:100E8000109258041092590410925A0410925B0464
:100E90008091580490915904A0915A04B0915B0438
:100EA00026960FB6F894DEBF0FBECDBFCF91DF916F
:100EB00008951F920F920FB60F9211242F933F9314
:100EC0004F935F936F937F938F939F93AF93BF9352
:100ED000EF93FF930E948103FF91EF91BF91AF9138
:100EE0009F918F917F916F915F914F913F912F9142
:100EF0000F900FBE0F901F901895FC018DE594E0A8
:100F000090937A0480937904808180768032F1F422
:100F10008181813061F40E94D206909157049093B0
:100F20005D0480935E041092570482E0089582303D
:100F300041F48CE594E090937A048093790481E005
:100F400008958A3029F4838180935C0480E00895B9
:100F500080E00895FF920F931F93DF93CF930F923A
:100F6000CDB7DEB72FE088E190E00FB6F894A895F2
:100F7000809360000FBE209360008FEF85B914B896
:100F800088B917B88AEF8BB987E08AB912E01AB925
:100F90000E94F30114B81AB91092800084E0809383
:100FA000810010936B0081E080936800789410E0DA
:100FB00090E000E0FF24F39401C091E0A8959983AC
:100FC0000E94E3000E94D2069981081711F0082FB1
:100FD00091E0A89B08C0F5BA80915C04882319F0C1
:100FE000153020F01550992349F301C0182F809136
:100FF0006A0484FFE2CF8091570480935D040093DC
:101000005E04109257048DE594E062E00E94C000F7
:1010100090E0D4CF991B79E004C0991F961708F08F
:10102000961B881F7A95C9F780950895AA1BBB1B4C
:1010300051E107C0AA1FBB1FA617B70710F0A61BD8
:10104000B70B881F991F5A95A9F780959095BC01F9
:08105000CD010895F894FFCFD3
:101058005AFF49523A204E454320444154412045C5
:10106800525220646966663D002C20636E743D0010
:101078002C20646174613D00554E4B4E4F574E20F5
:1010880053544154450D0A00307800AB0800000164
:10109800AC080000022D0A000004390A00004000D4
:1010A8000000000000000000000000000000000038
:1010B8000000000000000000000000000000000028
:1010C8000000000000000000000000000000000018
:1010D8000000000000000000000000000000000008
:1010E80000000000000000000000000000000000F8
:1010F80000000000000000000000000000000000E8
:1011080000000000000000000000000000000000D7
:1011180000000000000000000000000000000000C7
:1011280000000000000000000000000000000000B7
:1011380000000000000000000000000000000000A7
:101148000000000000000000000000000000000097
:101158000000000000000000000000000000000087
:101168000000000000000000000000000000000077
:101178000000000000000000000000000000000067
:101188000000000000000000000000000000000057
:101198000000000000000000000000000000000047
:1011A8000000000000000000000000000000000037
:1011B8000000000000000000000000000000000027
:1011C8000000000000000000000000000000000017
:1011D8000000000000000000000000000000000007
:1011E80000000000000000000000000000000000F7
:1011F8000000000000000000B30A000004B40A0068
:101208000005B90A000006E80A000007CB0A00003A
:1012180008CC0A000009B50200000AD80A00000B31
:10122800E30A00000CE40A00000DE90A00000EA819
:101238000B00000F2B0B0000102C0B000011CD022F
:10124800000012380B000013D302000014D402006F
:101258000015D902000016680B0000178B0B000060
:10126800188C0B000019E50200001A980B00001BEF
:10127800A30B00001CA40B00001DA90B00001EA856
:101288000E00001FAB0C000020AC0C0000212D0349
:10129800000022B80C0000233303000024340300AC
:1012A80000253903000026E80C0000275803000039
:1012B8002B9903000036680E0000378B0E000038AB
:1012C800380E0000339303000034690300002ED564
:1012D8000C00002A4B03000028630300002C4C0379
:1012E800000066A305000013A40500007F98050010
:1012F8000016980E000000540D000029A8060000F2
:101308002FAB08000000530D00002DAC08000000B2
:101318002D06000030A40E000000A80A000000A955
:101328000E0000006805000000AB02000000590D27
:1013380000000033060000004D0D0000522C05008F
:1013480000512B05000050A80300004F8B0500003A
:1013580058AC02000080AD04000081B80200000013
:06136800B30400000000C8
:00000001FF
